{
  "contractName": "ProveRealCore",
  "abi": [
    {
      "constant": true,
      "inputs": [
        {
          "name": "interfaceId",
          "type": "bytes4"
        }
      ],
      "name": "supportsInterface",
      "outputs": [
        {
          "name": "",
          "type": "bool"
        }
      ],
      "payable": false,
      "stateMutability": "view",
      "type": "function",
      "signature": "0x01ffc9a7"
    },
    {
      "constant": true,
      "inputs": [],
      "name": "name",
      "outputs": [
        {
          "name": "",
          "type": "string"
        }
      ],
      "payable": false,
      "stateMutability": "view",
      "type": "function",
      "signature": "0x06fdde03"
    },
    {
      "constant": true,
      "inputs": [
        {
          "name": "tokenId",
          "type": "uint256"
        }
      ],
      "name": "getApproved",
      "outputs": [
        {
          "name": "",
          "type": "address"
        }
      ],
      "payable": false,
      "stateMutability": "view",
      "type": "function",
      "signature": "0x081812fc"
    },
    {
      "constant": false,
      "inputs": [
        {
          "name": "to",
          "type": "address"
        },
        {
          "name": "tokenId",
          "type": "uint256"
        }
      ],
      "name": "approve",
      "outputs": [],
      "payable": false,
      "stateMutability": "nonpayable",
      "type": "function",
      "signature": "0x095ea7b3"
    },
    {
      "constant": true,
      "inputs": [
        {
          "name": "",
          "type": "uint256"
        }
      ],
      "name": "issuedTokensIndex",
      "outputs": [
        {
          "name": "",
          "type": "uint256"
        }
      ],
      "payable": false,
      "stateMutability": "view",
      "type": "function",
      "signature": "0x0eabd47c"
    },
    {
      "constant": true,
      "inputs": [],
      "name": "totalSupply",
      "outputs": [
        {
          "name": "",
          "type": "uint256"
        }
      ],
      "payable": false,
      "stateMutability": "view",
      "type": "function",
      "signature": "0x18160ddd"
    },
    {
      "constant": false,
      "inputs": [
        {
          "name": "from",
          "type": "address"
        },
        {
          "name": "to",
          "type": "address"
        },
        {
          "name": "tokenId",
          "type": "uint256"
        }
      ],
      "name": "transferFrom",
      "outputs": [],
      "payable": false,
      "stateMutability": "nonpayable",
      "type": "function",
      "signature": "0x23b872dd"
    },
    {
      "constant": true,
      "inputs": [
        {
          "name": "owner",
          "type": "address"
        },
        {
          "name": "index",
          "type": "uint256"
        }
      ],
      "name": "tokenOfOwnerByIndex",
      "outputs": [
        {
          "name": "",
          "type": "uint256"
        }
      ],
      "payable": false,
      "stateMutability": "view",
      "type": "function",
      "signature": "0x2f745c59"
    },
    {
      "constant": false,
      "inputs": [
        {
          "name": "from",
          "type": "address"
        },
        {
          "name": "to",
          "type": "address"
        },
        {
          "name": "tokenId",
          "type": "uint256"
        }
      ],
      "name": "safeTransferFrom",
      "outputs": [],
      "payable": false,
      "stateMutability": "nonpayable",
      "type": "function",
      "signature": "0x42842e0e"
    },
    {
      "constant": false,
      "inputs": [
        {
          "name": "tokenId",
          "type": "uint256"
        }
      ],
      "name": "burn",
      "outputs": [],
      "payable": false,
      "stateMutability": "nonpayable",
      "type": "function",
      "signature": "0x42966c68"
    },
    {
      "constant": true,
      "inputs": [
        {
          "name": "index",
          "type": "uint256"
        }
      ],
      "name": "tokenByIndex",
      "outputs": [
        {
          "name": "",
          "type": "uint256"
        }
      ],
      "payable": false,
      "stateMutability": "view",
      "type": "function",
      "signature": "0x4f6ccce7"
    },
    {
      "constant": true,
      "inputs": [],
      "name": "issuanceFee",
      "outputs": [
        {
          "name": "",
          "type": "uint256"
        }
      ],
      "payable": false,
      "stateMutability": "view",
      "type": "function",
      "signature": "0x5cef5ce6"
    },
    {
      "constant": true,
      "inputs": [
        {
          "name": "",
          "type": "address"
        }
      ],
      "name": "addressToBrand",
      "outputs": [
        {
          "name": "",
          "type": "string"
        }
      ],
      "payable": false,
      "stateMutability": "view",
      "type": "function",
      "signature": "0x5fabd198"
    },
    {
      "constant": true,
      "inputs": [
        {
          "name": "tokenId",
          "type": "uint256"
        }
      ],
      "name": "ownerOf",
      "outputs": [
        {
          "name": "",
          "type": "address"
        }
      ],
      "payable": false,
      "stateMutability": "view",
      "type": "function",
      "signature": "0x6352211e"
    },
    {
      "constant": true,
      "inputs": [
        {
          "name": "owner",
          "type": "address"
        }
      ],
      "name": "balanceOf",
      "outputs": [
        {
          "name": "",
          "type": "uint256"
        }
      ],
      "payable": false,
      "stateMutability": "view",
      "type": "function",
      "signature": "0x70a08231"
    },
    {
      "constant": false,
      "inputs": [],
      "name": "renounceOwnership",
      "outputs": [],
      "payable": false,
      "stateMutability": "nonpayable",
      "type": "function",
      "signature": "0x715018a6"
    },
    {
      "constant": true,
      "inputs": [],
      "name": "owner",
      "outputs": [
        {
          "name": "",
          "type": "address"
        }
      ],
      "payable": false,
      "stateMutability": "view",
      "type": "function",
      "signature": "0x8da5cb5b"
    },
    {
      "constant": true,
      "inputs": [],
      "name": "isOwner",
      "outputs": [
        {
          "name": "",
          "type": "bool"
        }
      ],
      "payable": false,
      "stateMutability": "view",
      "type": "function",
      "signature": "0x8f32d59b"
    },
    {
      "constant": true,
      "inputs": [],
      "name": "symbol",
      "outputs": [
        {
          "name": "",
          "type": "string"
        }
      ],
      "payable": false,
      "stateMutability": "view",
      "type": "function",
      "signature": "0x95d89b41"
    },
    {
      "constant": false,
      "inputs": [
        {
          "name": "to",
          "type": "address"
        },
        {
          "name": "approved",
          "type": "bool"
        }
      ],
      "name": "setApprovalForAll",
      "outputs": [],
      "payable": false,
      "stateMutability": "nonpayable",
      "type": "function",
      "signature": "0xa22cb465"
    },
    {
      "constant": false,
      "inputs": [
        {
          "name": "from",
          "type": "address"
        },
        {
          "name": "to",
          "type": "address"
        },
        {
          "name": "tokenId",
          "type": "uint256"
        },
        {
          "name": "_data",
          "type": "bytes"
        }
      ],
      "name": "safeTransferFrom",
      "outputs": [],
      "payable": false,
      "stateMutability": "nonpayable",
      "type": "function",
      "signature": "0xb88d4fde"
    },
    {
      "constant": true,
      "inputs": [
        {
          "name": "tokenId",
          "type": "uint256"
        }
      ],
      "name": "tokenURI",
      "outputs": [
        {
          "name": "",
          "type": "string"
        }
      ],
      "payable": false,
      "stateMutability": "view",
      "type": "function",
      "signature": "0xc87b56dd"
    },
    {
      "constant": true,
      "inputs": [
        {
          "name": "",
          "type": "uint256"
        }
      ],
      "name": "tokenBrands",
      "outputs": [
        {
          "name": "",
          "type": "string"
        }
      ],
      "payable": false,
      "stateMutability": "view",
      "type": "function",
      "signature": "0xda09b81c"
    },
    {
      "constant": true,
      "inputs": [
        {
          "name": "owner",
          "type": "address"
        },
        {
          "name": "operator",
          "type": "address"
        }
      ],
      "name": "isApprovedForAll",
      "outputs": [
        {
          "name": "",
          "type": "bool"
        }
      ],
      "payable": false,
      "stateMutability": "view",
      "type": "function",
      "signature": "0xe985e9c5"
    },
    {
      "constant": false,
      "inputs": [
        {
          "name": "newOwner",
          "type": "address"
        }
      ],
      "name": "transferOwnership",
      "outputs": [],
      "payable": false,
      "stateMutability": "nonpayable",
      "type": "function",
      "signature": "0xf2fde38b"
    },
    {
      "inputs": [],
      "payable": false,
      "stateMutability": "nonpayable",
      "type": "constructor",
      "signature": "constructor"
    },
    {
      "anonymous": false,
      "inputs": [
        {
          "indexed": false,
          "name": "brand",
          "type": "string"
        },
        {
          "indexed": false,
          "name": "tokenId",
          "type": "uint256"
        }
      ],
      "name": "issued",
      "type": "event",
      "signature": "0x8b11255d50dec5a13bae36f528c3e32f21c60ee8cfb2ae94ee19936ba71af595"
    },
    {
      "anonymous": false,
      "inputs": [
        {
          "indexed": true,
          "name": "previousOwner",
          "type": "address"
        },
        {
          "indexed": true,
          "name": "newOwner",
          "type": "address"
        }
      ],
      "name": "OwnershipTransferred",
      "type": "event",
      "signature": "0x8be0079c531659141344cd1fd0a4f28419497f9722a3daafe3b4186f6b6457e0"
    },
    {
      "anonymous": false,
      "inputs": [
        {
          "indexed": true,
          "name": "from",
          "type": "address"
        },
        {
          "indexed": true,
          "name": "to",
          "type": "address"
        },
        {
          "indexed": true,
          "name": "tokenId",
          "type": "uint256"
        }
      ],
      "name": "Transfer",
      "type": "event",
      "signature": "0xddf252ad1be2c89b69c2b068fc378daa952ba7f163c4a11628f55a4df523b3ef"
    },
    {
      "anonymous": false,
      "inputs": [
        {
          "indexed": true,
          "name": "owner",
          "type": "address"
        },
        {
          "indexed": true,
          "name": "approved",
          "type": "address"
        },
        {
          "indexed": true,
          "name": "tokenId",
          "type": "uint256"
        }
      ],
      "name": "Approval",
      "type": "event",
      "signature": "0x8c5be1e5ebec7d5bd14f71427d1e84f3dd0314c0f7b2291e5b200ac8c7c3b925"
    },
    {
      "anonymous": false,
      "inputs": [
        {
          "indexed": true,
          "name": "owner",
          "type": "address"
        },
        {
          "indexed": true,
          "name": "operator",
          "type": "address"
        },
        {
          "indexed": false,
          "name": "approved",
          "type": "bool"
        }
      ],
      "name": "ApprovalForAll",
      "type": "event",
      "signature": "0x17307eab39ab6107e8899845ad3d59bd9653f200f220920489ca2b5937696c31"
    },
    {
      "constant": false,
      "inputs": [],
      "name": "kill",
      "outputs": [],
      "payable": false,
      "stateMutability": "nonpayable",
      "type": "function",
      "signature": "0x41c0e1b5"
    },
    {
      "constant": true,
      "inputs": [
        {
          "name": "brand",
          "type": "string"
        }
      ],
      "name": "brandToAddress",
      "outputs": [
        {
          "name": "",
          "type": "address"
        }
      ],
      "payable": false,
      "stateMutability": "view",
      "type": "function",
      "signature": "0x7af2108f"
    },
    {
      "constant": false,
      "inputs": [
        {
          "name": "brandAddress",
          "type": "address"
        },
        {
          "name": "brandName",
          "type": "string"
        }
      ],
      "name": "setBrand",
      "outputs": [],
      "payable": false,
      "stateMutability": "nonpayable",
      "type": "function",
      "signature": "0xc7fae8af"
    },
    {
      "constant": false,
      "inputs": [
        {
          "name": "oldAddress",
          "type": "address"
        },
        {
          "name": "newAddress",
          "type": "address"
        }
      ],
      "name": "changeBrandAddress",
      "outputs": [],
      "payable": false,
      "stateMutability": "nonpayable",
      "type": "function",
      "signature": "0xaf6a5f32"
    },
    {
      "constant": true,
      "inputs": [
        {
          "name": "metadataURI",
          "type": "string"
        }
      ],
      "name": "getMetadataBrand",
      "outputs": [
        {
          "name": "",
          "type": "string"
        }
      ],
      "payable": false,
      "stateMutability": "view",
      "type": "function",
      "signature": "0x46ca8193"
    },
    {
      "constant": true,
      "inputs": [
        {
          "name": "metadataURI",
          "type": "string"
        }
      ],
      "name": "getMetadataIndex",
      "outputs": [
        {
          "name": "",
          "type": "uint256"
        }
      ],
      "payable": false,
      "stateMutability": "view",
      "type": "function",
      "signature": "0xba2b2ba2"
    },
    {
      "constant": false,
      "inputs": [
        {
          "name": "metadataURI",
          "type": "string"
        }
      ],
      "name": "registerMetadata",
      "outputs": [],
      "payable": false,
      "stateMutability": "nonpayable",
      "type": "function",
      "signature": "0x35d635fa"
    },
    {
      "constant": true,
      "inputs": [
        {
          "name": "brand",
          "type": "string"
        }
      ],
      "name": "getBrandMetadataCount",
      "outputs": [
        {
          "name": "",
          "type": "uint256"
        }
      ],
      "payable": false,
      "stateMutability": "view",
      "type": "function",
      "signature": "0x4e346a1a"
    },
    {
      "constant": true,
      "inputs": [
        {
          "name": "index",
          "type": "uint256"
        },
        {
          "name": "brand",
          "type": "string"
        }
      ],
      "name": "getBrandItemByIndex",
      "outputs": [
        {
          "name": "",
          "type": "string"
        }
      ],
      "payable": false,
      "stateMutability": "view",
      "type": "function",
      "signature": "0xba0c79bd"
    },
    {
      "constant": true,
      "inputs": [
        {
          "name": "metadataURI",
          "type": "string"
        }
      ],
      "name": "isMetadataRegistered",
      "outputs": [
        {
          "name": "",
          "type": "bool"
        }
      ],
      "payable": false,
      "stateMutability": "view",
      "type": "function",
      "signature": "0x1099e988"
    },
    {
      "constant": true,
      "inputs": [
        {
          "name": "brand",
          "type": "string"
        }
      ],
      "name": "getNumberOfBrandTokens",
      "outputs": [
        {
          "name": "",
          "type": "uint256"
        }
      ],
      "payable": false,
      "stateMutability": "view",
      "type": "function",
      "signature": "0xb21772a4"
    },
    {
      "constant": true,
      "inputs": [
        {
          "name": "tokenIndex",
          "type": "uint256"
        },
        {
          "name": "brand",
          "type": "string"
        }
      ],
      "name": "getTokenIDFromBrandEnumeration",
      "outputs": [
        {
          "name": "",
          "type": "uint256"
        }
      ],
      "payable": false,
      "stateMutability": "view",
      "type": "function",
      "signature": "0x3e0c5b3d"
    },
    {
      "constant": false,
      "inputs": [
        {
          "name": "to",
          "type": "address"
        },
        {
          "name": "metadataURI",
          "type": "string"
        }
      ],
      "name": "issue",
      "outputs": [],
      "payable": true,
      "stateMutability": "payable",
      "type": "function",
      "signature": "0x04b444d9"
    },
    {
      "constant": false,
      "inputs": [
        {
          "name": "fee",
          "type": "uint256"
        }
      ],
      "name": "setIssuanceFee",
      "outputs": [],
      "payable": false,
      "stateMutability": "nonpayable",
      "type": "function",
      "signature": "0xd53cf8d2"
    },
    {
      "constant": false,
      "inputs": [],
      "name": "withdrawBalance",
      "outputs": [],
      "payable": false,
      "stateMutability": "nonpayable",
      "type": "function",
      "signature": "0x5fd8c710"
    }
  ],
  "bytecode": "0x60806040523480156200001157600080fd5b506040805190810160405280601381526020017f50726f76655265616c416c706861416c706861000000000000000000000000008152506040805190810160405280600481526020017f50564141000000000000000000000000000000000000000000000000000000008152508181620000bd6301ffc9a77c01000000000000000000000000000000000000000000000000000000000262000276640100000000026401000000009004565b620000fa6380ac58cd7c01000000000000000000000000000000000000000000000000000000000262000276640100000000026401000000009004565b6200013763780e9d637c01000000000000000000000000000000000000000000000000000000000262000276640100000000026401000000009004565b81600990805190602001906200014f92919062000334565b5080600a90805190602001906200016892919062000334565b50620001a6635b5e139f7c01000000000000000000000000000000000000000000000000000000000262000276640100000000026401000000009004565b5050505033600c60006101000a81548173ffffffffffffffffffffffffffffffffffffffff021916908373ffffffffffffffffffffffffffffffffffffffff160217905550600c60009054906101000a900473ffffffffffffffffffffffffffffffffffffffff1673ffffffffffffffffffffffffffffffffffffffff16600073ffffffffffffffffffffffffffffffffffffffff167f8be0079c531659141344cd1fd0a4f28419497f9722a3daafe3b4186f6b6457e060405160405180910390a36000601a81905550620003e3565b63ffffffff7c010000000000000000000000000000000000000000000000000000000002817bffffffffffffffffffffffffffffffffffffffffffffffffffffffff191614151515620002c857600080fd5b6001600080837bffffffffffffffffffffffffffffffffffffffffffffffffffffffff19167bffffffffffffffffffffffffffffffffffffffffffffffffffffffff1916815260200190815260200160002060006101000a81548160ff02191690831515021790555050565b828054600181600116156101000203166002900490600052602060002090601f016020900481019282601f106200037757805160ff1916838001178555620003a8565b82800160010185558215620003a8579182015b82811115620003a75782518255916020019190600101906200038a565b5b509050620003b79190620003bb565b5090565b620003e091905b80821115620003dc576000816000905550600101620003c2565b5090565b90565b61473680620003f36000396000f3fe6080604052600436106101ee576000357c0100000000000000000000000000000000000000000000000000000000900463ffffffff16806301ffc9a7146101f357806304b444d91461026557806306fdde03146102fe578063081812fc1461038e578063095ea7b3146104095780630eabd47c146104645780631099e988146104b357806318160ddd1461055157806323b872dd1461057c5780632f745c59146105f757806335d635fa146106665780633e0c5b3d146106ec57806341c0e1b51461079057806342842e0e146107a757806342966c681461082257806346ca81931461085d5780634e346a1a1461095c5780634f6ccce7146109f65780635cef5ce614610a455780635fabd19814610a705780635fd8c71014610b3a5780636352211e14610b5157806370a0823114610bcc578063715018a614610c315780637af2108f14610c485780638da5cb5b14610d0e5780638f32d59b14610d6557806395d89b4114610d94578063a22cb46514610e24578063af6a5f3214610e81578063b21772a414610ef2578063b88d4fde14610f8c578063ba0c79bd1461109e578063ba2b2ba2146111a7578063c7fae8af14611241578063c87b56dd146112e7578063d53cf8d21461139b578063da09b81c146113d6578063e985e9c51461148a578063f2fde38b14611513575b600080fd5b3480156101ff57600080fd5b5061024b6004803603602081101561021657600080fd5b8101908080357bffffffffffffffffffffffffffffffffffffffffffffffffffffffff19169060200190929190505050611564565b604051808215151515815260200191505060405180910390f35b6102fc6004803603604081101561027b57600080fd5b81019080803573ffffffffffffffffffffffffffffffffffffffff169060200190929190803590602001906401000000008111156102b857600080fd5b8201836020820111156102ca57600080fd5b803590602001918460018302840111640100000000831117156102ec57600080fd5b90919293919293905050506115cb565b005b34801561030a57600080fd5b506103136118db565b6040518080602001828103825283818151815260200191508051906020019080838360005b83811015610353578082015181840152602081019050610338565b50505050905090810190601f1680156103805780820380516001836020036101000a031916815260200191505b509250505060405180910390f35b34801561039a57600080fd5b506103c7600480360360208110156103b157600080fd5b810190808035906020019092919050505061197d565b604051808273ffffffffffffffffffffffffffffffffffffffff1673ffffffffffffffffffffffffffffffffffffffff16815260200191505060405180910390f35b34801561041557600080fd5b506104626004803603604081101561042c57600080fd5b81019080803573ffffffffffffffffffffffffffffffffffffffff169060200190929190803590602001909291905050506119ce565b005b34801561047057600080fd5b5061049d6004803603602081101561048757600080fd5b8101908080359060200190929190505050611b13565b6040518082815260200191505060405180910390f35b3480156104bf57600080fd5b50610537600480360360208110156104d657600080fd5b81019080803590602001906401000000008111156104f357600080fd5b82018360208201111561050557600080fd5b8035906020019184600183028401116401000000008311171561052757600080fd5b9091929391929390505050611b2b565b604051808215151515815260200191505060405180910390f35b34801561055d57600080fd5b50610566611b6a565b6040518082815260200191505060405180910390f35b34801561058857600080fd5b506105f56004803603606081101561059f57600080fd5b81019080803573ffffffffffffffffffffffffffffffffffffffff169060200190929190803573ffffffffffffffffffffffffffffffffffffffff16906020019092919080359060200190929190505050611b77565b005b34801561060357600080fd5b506106506004803603604081101561061a57600080fd5b81019080803573ffffffffffffffffffffffffffffffffffffffff16906020019092919080359060200190929190505050611b9c565b6040518082815260200191505060405180910390f35b34801561067257600080fd5b506106ea6004803603602081101561068957600080fd5b81019080803590602001906401000000008111156106a657600080fd5b8201836020820111156106b857600080fd5b803590602001918460018302840111640100000000831117156106da57600080fd5b9091929391929390505050611c13565b005b3480156106f857600080fd5b5061077a6004803603604081101561070f57600080fd5b81019080803590602001909291908035906020019064010000000081111561073657600080fd5b82018360208201111561074857600080fd5b8035906020019184600183028401116401000000008311171561076a57600080fd5b9091929391929390505050612022565b6040518082815260200191505060405180910390f35b34801561079c57600080fd5b506107a561206c565b005b3480156107b357600080fd5b50610820600480360360608110156107ca57600080fd5b81019080803573ffffffffffffffffffffffffffffffffffffffff169060200190929190803573ffffffffffffffffffffffffffffffffffffffff16906020019092919080359060200190929190505050612098565b005b34801561082e57600080fd5b5061085b6004803603602081101561084557600080fd5b81019080803590602001909291905050506120b9565b005b34801561086957600080fd5b506108e16004803603602081101561088057600080fd5b810190808035906020019064010000000081111561089d57600080fd5b8201836020820111156108af57600080fd5b803590602001918460018302840111640100000000831117156108d157600080fd5b90919293919293905050506120da565b6040518080602001828103825283818151815260200191508051906020019080838360005b83811015610921578082015181840152602081019050610906565b50505050905090810190601f16801561094e5780820380516001836020036101000a031916815260200191505b509250505060405180910390f35b34801561096857600080fd5b506109e06004803603602081101561097f57600080fd5b810190808035906020019064010000000081111561099c57600080fd5b8201836020820111156109ae57600080fd5b803590602001918460018302840111640100000000831117156109d057600080fd5b90919293919293905050506121a4565b6040518082815260200191505060405180910390f35b348015610a0257600080fd5b50610a2f60048036036020811015610a1957600080fd5b81019080803590602001909291905050506121d6565b6040518082815260200191505060405180910390f35b348015610a5157600080fd5b50610a5a61220e565b6040518082815260200191505060405180910390f35b348015610a7c57600080fd5b50610abf60048036036020811015610a9357600080fd5b81019080803573ffffffffffffffffffffffffffffffffffffffff169060200190929190505050612214565b6040518080602001828103825283818151815260200191508051906020019080838360005b83811015610aff578082015181840152602081019050610ae4565b50505050905090810190601f168015610b2c5780820380516001836020036101000a031916815260200191505b509250505060405180910390f35b348015610b4657600080fd5b50610b4f6122c4565b005b348015610b5d57600080fd5b50610b8a60048036036020811015610b7457600080fd5b8101908080359060200190929190505050612337565b604051808273ffffffffffffffffffffffffffffffffffffffff1673ffffffffffffffffffffffffffffffffffffffff16815260200191505060405180910390f35b348015610bd857600080fd5b50610c1b60048036036020811015610bef57600080fd5b81019080803573ffffffffffffffffffffffffffffffffffffffff1690602001909291905050506123b5565b6040518082815260200191505060405180910390f35b348015610c3d57600080fd5b50610c46612439565b005b348015610c5457600080fd5b50610ccc60048036036020811015610c6b57600080fd5b8101908080359060200190640100000000811115610c8857600080fd5b820183602082011115610c9a57600080fd5b80359060200191846001830284011164010000000083111715610cbc57600080fd5b909192939192939050505061250d565b604051808273ffffffffffffffffffffffffffffffffffffffff1673ffffffffffffffffffffffffffffffffffffffff16815260200191505060405180910390f35b348015610d1a57600080fd5b50610d2361255f565b604051808273ffffffffffffffffffffffffffffffffffffffff1673ffffffffffffffffffffffffffffffffffffffff16815260200191505060405180910390f35b348015610d7157600080fd5b50610d7a612589565b604051808215151515815260200191505060405180910390f35b348015610da057600080fd5b50610da96125e1565b6040518080602001828103825283818151815260200191508051906020019080838360005b83811015610de9578082015181840152602081019050610dce565b50505050905090810190601f168015610e165780820380516001836020036101000a031916815260200191505b509250505060405180910390f35b348015610e3057600080fd5b50610e7f60048036036040811015610e4757600080fd5b81019080803573ffffffffffffffffffffffffffffffffffffffff169060200190929190803515159060200190929190505050612683565b005b348015610e8d57600080fd5b50610ef060048036036040811015610ea457600080fd5b81019080803573ffffffffffffffffffffffffffffffffffffffff169060200190929190803573ffffffffffffffffffffffffffffffffffffffff1690602001909291905050506127bf565b005b348015610efe57600080fd5b50610f7660048036036020811015610f1557600080fd5b8101908080359060200190640100000000811115610f3257600080fd5b820183602082011115610f4457600080fd5b80359060200191846001830284011164010000000083111715610f6657600080fd5b9091929391929390505050612b8a565b6040518082815260200191505060405180910390f35b348015610f9857600080fd5b5061109c60048036036080811015610faf57600080fd5b81019080803573ffffffffffffffffffffffffffffffffffffffff169060200190929190803573ffffffffffffffffffffffffffffffffffffffff169060200190929190803590602001909291908035906020019064010000000081111561101657600080fd5b82018360208201111561102857600080fd5b8035906020019184600183028401116401000000008311171561104a57600080fd5b91908080601f016020809104026020016040519081016040528093929190818152602001838380828437600081840152601f19601f820116905080830192505050505050509192919290505050612bbf565b005b3480156110aa57600080fd5b5061112c600480360360408110156110c157600080fd5b8101908080359060200190929190803590602001906401000000008111156110e857600080fd5b8201836020820111156110fa57600080fd5b8035906020019184600183028401116401000000008311171561111c57600080fd5b9091929391929390505050612be7565b6040518080602001828103825283818151815260200191508051906020019080838360005b8381101561116c578082015181840152602081019050611151565b50505050905090810190601f1680156111995780820380516001836020036101000a031916815260200191505b509250505060405180910390f35b3480156111b357600080fd5b5061122b600480360360208110156111ca57600080fd5b81019080803590602001906401000000008111156111e757600080fd5b8201836020820111156111f957600080fd5b8035906020019184600183028401116401000000008311171561121b57600080fd5b9091929391929390505050612cc3565b6040518082815260200191505060405180910390f35b34801561124d57600080fd5b506112e56004803603604081101561126457600080fd5b81019080803573ffffffffffffffffffffffffffffffffffffffff169060200190929190803590602001906401000000008111156112a157600080fd5b8201836020820111156112b357600080fd5b803590602001918460018302840111640100000000831117156112d557600080fd5b9091929391929390505050612cf5565b005b3480156112f357600080fd5b506113206004803603602081101561130a57600080fd5b8101908080359060200190929190505050612ef4565b6040518080602001828103825283818151815260200191508051906020019080838360005b83811015611360578082015181840152602081019050611345565b50505050905090810190601f16801561138d5780820380516001836020036101000a031916815260200191505b509250505060405180910390f35b3480156113a757600080fd5b506113d4600480360360208110156113be57600080fd5b8101908080359060200190929190505050612fbd565b005b3480156113e257600080fd5b5061140f600480360360208110156113f957600080fd5b8101908080359060200190929190505050612fda565b6040518080602001828103825283818151815260200191508051906020019080838360005b8381101561144f578082015181840152602081019050611434565b50505050905090810190601f16801561147c5780820380516001836020036101000a031916815260200191505b509250505060405180910390f35b34801561149657600080fd5b506114f9600480360360408110156114ad57600080fd5b81019080803573ffffffffffffffffffffffffffffffffffffffff169060200190929190803573ffffffffffffffffffffffffffffffffffffffff16906020019092919050505061308a565b604051808215151515815260200191505060405180910390f35b34801561151f57600080fd5b506115626004803603602081101561153657600080fd5b81019080803573ffffffffffffffffffffffffffffffffffffffff16906020019092919050505061311e565b005b6000806000837bffffffffffffffffffffffffffffffffffffffffffffffffffffffff19167bffffffffffffffffffffffffffffffffffffffffffffffffffffffff1916815260200190815260200160002060009054906101000a900460ff169050919050565b600f60003373ffffffffffffffffffffffffffffffffffffffff1673ffffffffffffffffffffffffffffffffffffffff16815260200190815260200160002060009054906101000a900460ff16151561162357600080fd5b601a543414151561163357600080fd5b6060601160003373ffffffffffffffffffffffffffffffffffffffff1673ffffffffffffffffffffffffffffffffffffffff1681526020019081526020016000208054600181600116156101000203166002900480601f0160208091040260200160405190810160405280929190818152602001828054600181600116156101000203166002900480156117085780601f106116dd57610100808354040283529160200191611708565b820191906000526020600020905b8154815290600101906020018083116116eb57829003601f168201915b505050505090506014816040518082805190602001908083835b6020831015156117475780518252602082019150602081019050602083039250611722565b6001836020036101000a03801982511681845116808217855250505050505090500191505090815260200160405180910390208383604051808383808284378083019250505092505050908152602001604051809103902060009054906101000a900460ff1615156117b857600080fd5b60006117c2611b6a565b90506117ce858261313d565b61181c8185858080601f016020809104026020016040519081016040528093929190818152602001838380828437600081840152601f19601f8201169050808301925050505050505061315e565b611826818361319e565b61183082826131de565b7f8b11255d50dec5a13bae36f528c3e32f21c60ee8cfb2ae94ee19936ba71af59582826040518080602001838152602001828103825284818151815260200191508051906020019080838360005b8381101561189957808201518184015260208101905061187e565b50505050905090810190601f1680156118c65780820380516001836020036101000a031916815260200191505b50935050505060405180910390a15050505050565b606060098054600181600116156101000203166002900480601f0160208091040260200160405190810160405280929190818152602001828054600181600116156101000203166002900480156119735780601f1061194857610100808354040283529160200191611973565b820191906000526020600020905b81548152906001019060200180831161195657829003601f168201915b5050505050905090565b6000611988826132fd565b151561199357600080fd5b6002600083815260200190815260200160002060009054906101000a900473ffffffffffffffffffffffffffffffffffffffff169050919050565b60006119d982612337565b90508073ffffffffffffffffffffffffffffffffffffffff168373ffffffffffffffffffffffffffffffffffffffff1614151515611a1657600080fd5b8073ffffffffffffffffffffffffffffffffffffffff163373ffffffffffffffffffffffffffffffffffffffff161480611a565750611a55813361308a565b5b1515611a6157600080fd5b826002600084815260200190815260200160002060006101000a81548173ffffffffffffffffffffffffffffffffffffffff021916908373ffffffffffffffffffffffffffffffffffffffff160217905550818373ffffffffffffffffffffffffffffffffffffffff168273ffffffffffffffffffffffffffffffffffffffff167f8c5be1e5ebec7d5bd14f71427d1e84f3dd0314c0f7b2291e5b200ac8c7c3b92560405160405180910390a4505050565b600e6020528060005260406000206000915090505481565b600060158383604051808383808284378083019250505092505050908152602001604051809103902060009054906101000a900460ff16905092915050565b6000600780549050905090565b611b81338261336f565b1515611b8c57600080fd5b611b97838383613404565b505050565b6000611ba7836123b5565b82101515611bb457600080fd5b600560008473ffffffffffffffffffffffffffffffffffffffff1673ffffffffffffffffffffffffffffffffffffffff16815260200190815260200160002082815481101515611c0057fe5b9060005260206000200154905092915050565b600f60003373ffffffffffffffffffffffffffffffffffffffff1673ffffffffffffffffffffffffffffffffffffffff16815260200190815260200160002060009054906101000a900460ff161515611c6b57600080fd5b60158282604051808383808284378083019250505092505050908152602001604051809103902060009054906101000a900460ff16151515611cac57600080fd5b6060601160003373ffffffffffffffffffffffffffffffffffffffff1673ffffffffffffffffffffffffffffffffffffffff1681526020019081526020016000208054600181600116156101000203166002900480601f016020809104026020016040519081016040528092919081815260200182805460018160011615610100020316600290048015611d815780601f10611d5657610100808354040283529160200191611d81565b820191906000526020600020905b815481529060010190602001808311611d6457829003601f168201915b5050505050905060006018826040518082805190602001908083835b602083101515611dc25780518252602082019150602081019050602083039250611d9d565b6001836020036101000a038019825116818451168082178552505050505050905001915050908152602001604051809103902054905060016014836040518082805190602001908083835b602083101515611e325780518252602082019150602081019050602083039250611e0d565b6001836020036101000a03801982511681845116808217855250505050505090500191505090815260200160405180910390208585604051808383808284378083019250505092505050908152602001604051809103902060006101000a81548160ff021916908315150217905550816016858560405180838380828437808301925050509250505090815260200160405180910390209080519060200190611edc929190614571565b50600160158585604051808383808284378083019250505092505050908152602001604051809103902060006101000a81548160ff02191690831515021790555083836017846040518082805190602001908083835b602083101515611f575780518252602082019150602081019050602083039250611f32565b6001836020036101000a038019825116818451168082178552505050505050905001915050908152602001604051809103902060008481526020019081526020016000209190611fa89291906145f1565b50600181016018836040518082805190602001908083835b602083101515611fe55780518252602082019150602081019050602083039250611fc0565b6001836020036101000a03801982511681845116808217855250505050505090500191505090815260200160405180910390208190555050505050565b6000600d838360405180838380828437808301925050509250505090815260200160405180910390208481548110151561205857fe5b906000526020600020015490509392505050565b612074612589565b151561207f57600080fd5b3373ffffffffffffffffffffffffffffffffffffffff16ff5b6120b48383836020604051908101604052806000815250612bbf565b505050565b6120c3338261336f565b15156120ce57600080fd5b6120d781613428565b50565b60606016838360405180838380828437808301925050509250505090815260200160405180910390208054600181600116156101000203166002900480601f0160208091040260200160405190810160405280929190818152602001828054600181600116156101000203166002900480156121975780601f1061216c57610100808354040283529160200191612197565b820191906000526020600020905b81548152906001019060200180831161217a57829003601f168201915b5050505050905092915050565b600060188383604051808383808284378083019250505092505050908152602001604051809103902054905092915050565b60006121e0611b6a565b821015156121ed57600080fd5b6007828154811015156121fc57fe5b90600052602060002001549050919050565b601a5481565b60116020528060005260406000206000915090508054600181600116156101000203166002900480601f0160208091040260200160405190810160405280929190818152602001828054600181600116156101000203166002900480156122bc5780601f10612291576101008083540402835291602001916122bc565b820191906000526020600020905b81548152906001019060200180831161229f57829003601f168201915b505050505081565b6122cc612589565b15156122d757600080fd5b3373ffffffffffffffffffffffffffffffffffffffff166108fc3073ffffffffffffffffffffffffffffffffffffffff16319081150290604051600060405180830381858888f19350505050158015612334573d6000803e3d6000fd5b50565b6000806001600084815260200190815260200160002060009054906101000a900473ffffffffffffffffffffffffffffffffffffffff169050600073ffffffffffffffffffffffffffffffffffffffff168173ffffffffffffffffffffffffffffffffffffffff16141515156123ac57600080fd5b80915050919050565b60008073ffffffffffffffffffffffffffffffffffffffff168273ffffffffffffffffffffffffffffffffffffffff16141515156123f257600080fd5b600360008373ffffffffffffffffffffffffffffffffffffffff1673ffffffffffffffffffffffffffffffffffffffff168152602001908152602001600020549050919050565b612441612589565b151561244c57600080fd5b600073ffffffffffffffffffffffffffffffffffffffff16600c60009054906101000a900473ffffffffffffffffffffffffffffffffffffffff1673ffffffffffffffffffffffffffffffffffffffff167f8be0079c531659141344cd1fd0a4f28419497f9722a3daafe3b4186f6b6457e060405160405180910390a36000600c60006101000a81548173ffffffffffffffffffffffffffffffffffffffff021916908373ffffffffffffffffffffffffffffffffffffffff160217905550565b600060128383604051808383808284378083019250505092505050908152602001604051809103902060009054906101000a900473ffffffffffffffffffffffffffffffffffffffff16905092915050565b6000600c60009054906101000a900473ffffffffffffffffffffffffffffffffffffffff16905090565b6000600c60009054906101000a900473ffffffffffffffffffffffffffffffffffffffff1673ffffffffffffffffffffffffffffffffffffffff163373ffffffffffffffffffffffffffffffffffffffff1614905090565b6060600a8054600181600116156101000203166002900480601f0160208091040260200160405190810160405280929190818152602001828054600181600116156101000203166002900480156126795780601f1061264e57610100808354040283529160200191612679565b820191906000526020600020905b81548152906001019060200180831161265c57829003601f168201915b5050505050905090565b3373ffffffffffffffffffffffffffffffffffffffff168273ffffffffffffffffffffffffffffffffffffffff16141515156126be57600080fd5b80600460003373ffffffffffffffffffffffffffffffffffffffff1673ffffffffffffffffffffffffffffffffffffffff16815260200190815260200160002060008473ffffffffffffffffffffffffffffffffffffffff1673ffffffffffffffffffffffffffffffffffffffff16815260200190815260200160002060006101000a81548160ff0219169083151502179055508173ffffffffffffffffffffffffffffffffffffffff163373ffffffffffffffffffffffffffffffffffffffff167f17307eab39ab6107e8899845ad3d59bd9653f200f220920489ca2b5937696c3183604051808215151515815260200191505060405180910390a35050565b600f60008373ffffffffffffffffffffffffffffffffffffffff1673ffffffffffffffffffffffffffffffffffffffff16815260200190815260200160002060009054906101000a900460ff16151561281757600080fd5b600f60008273ffffffffffffffffffffffffffffffffffffffff1673ffffffffffffffffffffffffffffffffffffffff16815260200190815260200160002060009054906101000a900460ff1615151561287057600080fd5b3373ffffffffffffffffffffffffffffffffffffffff168273ffffffffffffffffffffffffffffffffffffffff1614806128ae57506128ad612589565b5b15156128b957600080fd5b6060601160008473ffffffffffffffffffffffffffffffffffffffff1673ffffffffffffffffffffffffffffffffffffffff1681526020019081526020016000208054600181600116156101000203166002900480601f01602080910402602001604051908101604052809291908181526020018280546001816001161561010002031660029004801561298e5780601f106129635761010080835404028352916020019161298e565b820191906000526020600020905b81548152906001019060200180831161297157829003601f168201915b50505050509050601160008473ffffffffffffffffffffffffffffffffffffffff1673ffffffffffffffffffffffffffffffffffffffff16815260200190815260200160002060006129e09190614671565b600f60008473ffffffffffffffffffffffffffffffffffffffff1673ffffffffffffffffffffffffffffffffffffffff16815260200190815260200160002060006101000a81549060ff021916905580601160008473ffffffffffffffffffffffffffffffffffffffff1673ffffffffffffffffffffffffffffffffffffffff1681526020019081526020016000209080519060200190612a82929190614571565b506001600f60008473ffffffffffffffffffffffffffffffffffffffff1673ffffffffffffffffffffffffffffffffffffffff16815260200190815260200160002060006101000a81548160ff021916908315150217905550816012826040518082805190602001908083835b602083101515612b145780518252602082019150602081019050602083039250612aef565b6001836020036101000a038019825116818451168082178552505050505050905001915050908152602001604051809103902060006101000a81548173ffffffffffffffffffffffffffffffffffffffff021916908373ffffffffffffffffffffffffffffffffffffffff160217905550505050565b6000600d8383604051808383808284378083019250505092505050908152602001604051809103902080549050905092915050565b612bca848484611b77565b612bd68484848461343d565b1515612be157600080fd5b50505050565b606060178383604051808383808284378083019250505092505050908152602001604051809103902060008581526020019081526020016000208054600181600116156101000203166002900480601f016020809104026020016040519081016040528092919081815260200182805460018160011615610100020316600290048015612cb55780601f10612c8a57610100808354040283529160200191612cb5565b820191906000526020600020905b815481529060010190602001808311612c9857829003601f168201915b505050505090509392505050565b600060198383604051808383808284378083019250505092505050908152602001604051809103902054905092915050565b612cfd612589565b1515612d0857600080fd5b60138282604051808383808284378083019250505092505050908152602001604051809103902060009054906101000a900460ff16151515612d4957600080fd5b600f60008473ffffffffffffffffffffffffffffffffffffffff1673ffffffffffffffffffffffffffffffffffffffff16815260200190815260200160002060009054906101000a900460ff16151515612da257600080fd5b8181601160008673ffffffffffffffffffffffffffffffffffffffff1673ffffffffffffffffffffffffffffffffffffffff1681526020019081526020016000209190612df09291906145f1565b506001600f60008573ffffffffffffffffffffffffffffffffffffffff1673ffffffffffffffffffffffffffffffffffffffff16815260200190815260200160002060006101000a81548160ff021916908315150217905550600160138383604051808383808284378083019250505092505050908152602001604051809103902060006101000a81548160ff0219169083151502179055508260128383604051808383808284378083019250505092505050908152602001604051809103902060006101000a81548173ffffffffffffffffffffffffffffffffffffffff021916908373ffffffffffffffffffffffffffffffffffffffff160217905550505050565b6060612eff826132fd565b1515612f0a57600080fd5b600b60008381526020019081526020016000208054600181600116156101000203166002900480601f016020809104026020016040519081016040528092919081815260200182805460018160011615610100020316600290048015612fb15780601f10612f8657610100808354040283529160200191612fb1565b820191906000526020600020905b815481529060010190602001808311612f9457829003601f168201915b50505050509050919050565b612fc5612589565b1515612fd057600080fd5b80601a8190555050565b60106020528060005260406000206000915090508054600181600116156101000203166002900480601f0160208091040260200160405190810160405280929190818152602001828054600181600116156101000203166002900480156130825780601f1061305757610100808354040283529160200191613082565b820191906000526020600020905b81548152906001019060200180831161306557829003601f168201915b505050505081565b6000600460008473ffffffffffffffffffffffffffffffffffffffff1673ffffffffffffffffffffffffffffffffffffffff16815260200190815260200160002060008373ffffffffffffffffffffffffffffffffffffffff1673ffffffffffffffffffffffffffffffffffffffff16815260200190815260200160002060009054906101000a900460ff16905092915050565b613126612589565b151561313157600080fd5b61313a81613660565b50565b613147828261375c565b61315182826138f5565b61315a816139bc565b5050565b613167826132fd565b151561317257600080fd5b80600b60008481526020019081526020016000209080519060200190613199929190614571565b505050565b6131a7826132fd565b15156131b257600080fd5b806010600084815260200190815260200160002090805190602001906131d9929190614571565b505050565b600d826040518082805190602001908083835b60208310151561321657805182526020820191506020810190506020830392506131f1565b6001836020036101000a038019825116818451168082178552505050505050905001915050908152602001604051809103902080549050600e600083815260200190815260200160002081905550600d826040518082805190602001908083835b60208310151561329c5780518252602082019150602081019050602083039250613277565b6001836020036101000a03801982511681845116808217855250505050505090500191505090815260200160405180910390208190806001815401808255809150509060018203906000526020600020016000909192909190915055505050565b6000806001600084815260200190815260200160002060009054906101000a900473ffffffffffffffffffffffffffffffffffffffff169050600073ffffffffffffffffffffffffffffffffffffffff168173ffffffffffffffffffffffffffffffffffffffff161415915050919050565b60008061337b83612337565b90508073ffffffffffffffffffffffffffffffffffffffff168473ffffffffffffffffffffffffffffffffffffffff1614806133ea57508373ffffffffffffffffffffffffffffffffffffffff166133d28461197d565b73ffffffffffffffffffffffffffffffffffffffff16145b806133fb57506133fa818561308a565b5b91505092915050565b61340f838383613a08565b6134198382613c6d565b61342382826138f5565b505050565b61343a61343482612337565b82613e11565b50565b600061345e8473ffffffffffffffffffffffffffffffffffffffff16613f1c565b151561346d5760019050613658565b60008473ffffffffffffffffffffffffffffffffffffffff1663150b7a02338887876040518563ffffffff167c0100000000000000000000000000000000000000000000000000000000028152600401808573ffffffffffffffffffffffffffffffffffffffff1673ffffffffffffffffffffffffffffffffffffffff1681526020018473ffffffffffffffffffffffffffffffffffffffff1673ffffffffffffffffffffffffffffffffffffffff16815260200183815260200180602001828103825283818151815260200191508051906020019080838360005b83811015613564578082015181840152602081019050613549565b50505050905090810190601f1680156135915780820380516001836020036101000a031916815260200191505b5095505050505050602060405180830381600087803b1580156135b357600080fd5b505af11580156135c7573d6000803e3d6000fd5b505050506040513d60208110156135dd57600080fd5b8101908080519060200190929190505050905063150b7a027c0100000000000000000000000000000000000000000000000000000000027bffffffffffffffffffffffffffffffffffffffffffffffffffffffff1916817bffffffffffffffffffffffffffffffffffffffffffffffffffffffff1916149150505b949350505050565b600073ffffffffffffffffffffffffffffffffffffffff168173ffffffffffffffffffffffffffffffffffffffff161415151561369c57600080fd5b8073ffffffffffffffffffffffffffffffffffffffff16600c60009054906101000a900473ffffffffffffffffffffffffffffffffffffffff1673ffffffffffffffffffffffffffffffffffffffff167f8be0079c531659141344cd1fd0a4f28419497f9722a3daafe3b4186f6b6457e060405160405180910390a380600c60006101000a81548173ffffffffffffffffffffffffffffffffffffffff021916908373ffffffffffffffffffffffffffffffffffffffff16021790555050565b600073ffffffffffffffffffffffffffffffffffffffff168273ffffffffffffffffffffffffffffffffffffffff161415151561379857600080fd5b6137a1816132fd565b1515156137ad57600080fd5b816001600083815260200190815260200160002060006101000a81548173ffffffffffffffffffffffffffffffffffffffff021916908373ffffffffffffffffffffffffffffffffffffffff1602179055506138526001600360008573ffffffffffffffffffffffffffffffffffffffff1673ffffffffffffffffffffffffffffffffffffffff16815260200190815260200160002054613f2f90919063ffffffff16565b600360008473ffffffffffffffffffffffffffffffffffffffff1673ffffffffffffffffffffffffffffffffffffffff16815260200190815260200160002081905550808273ffffffffffffffffffffffffffffffffffffffff16600073ffffffffffffffffffffffffffffffffffffffff167fddf252ad1be2c89b69c2b068fc378daa952ba7f163c4a11628f55a4df523b3ef60405160405180910390a45050565b600560008373ffffffffffffffffffffffffffffffffffffffff1673ffffffffffffffffffffffffffffffffffffffff168152602001908152602001600020805490506006600083815260200190815260200160002081905550600560008373ffffffffffffffffffffffffffffffffffffffff1673ffffffffffffffffffffffffffffffffffffffff1681526020019081526020016000208190806001815401808255809150509060018203906000526020600020016000909192909190915055505050565b6007805490506008600083815260200190815260200160002081905550600781908060018154018082558091505090600182039060005260206000200160009091929091909150555050565b8273ffffffffffffffffffffffffffffffffffffffff16613a2882612337565b73ffffffffffffffffffffffffffffffffffffffff16141515613a4a57600080fd5b600073ffffffffffffffffffffffffffffffffffffffff168273ffffffffffffffffffffffffffffffffffffffff1614151515613a8657600080fd5b613a8f81613f50565b613ae26001600360008673ffffffffffffffffffffffffffffffffffffffff1673ffffffffffffffffffffffffffffffffffffffff1681526020019081526020016000205461401090919063ffffffff16565b600360008573ffffffffffffffffffffffffffffffffffffffff1673ffffffffffffffffffffffffffffffffffffffff16815260200190815260200160002081905550613b786001600360008573ffffffffffffffffffffffffffffffffffffffff1673ffffffffffffffffffffffffffffffffffffffff16815260200190815260200160002054613f2f90919063ffffffff16565b600360008473ffffffffffffffffffffffffffffffffffffffff1673ffffffffffffffffffffffffffffffffffffffff16815260200190815260200160002081905550816001600083815260200190815260200160002060006101000a81548173ffffffffffffffffffffffffffffffffffffffff021916908373ffffffffffffffffffffffffffffffffffffffff160217905550808273ffffffffffffffffffffffffffffffffffffffff168473ffffffffffffffffffffffffffffffffffffffff167fddf252ad1be2c89b69c2b068fc378daa952ba7f163c4a11628f55a4df523b3ef60405160405180910390a4505050565b6000613cc56001600560008673ffffffffffffffffffffffffffffffffffffffff1673ffffffffffffffffffffffffffffffffffffffff1681526020019081526020016000208054905061401090919063ffffffff16565b90506000600660008481526020019081526020016000205490508181141515613db8576000600560008673ffffffffffffffffffffffffffffffffffffffff1673ffffffffffffffffffffffffffffffffffffffff16815260200190815260200160002083815481101515613d3657fe5b9060005260206000200154905080600560008773ffffffffffffffffffffffffffffffffffffffff1673ffffffffffffffffffffffffffffffffffffffff16815260200190815260200160002083815481101515613d9057fe5b9060005260206000200181905550816006600083815260200190815260200160002081905550505b600560008573ffffffffffffffffffffffffffffffffffffffff1673ffffffffffffffffffffffffffffffffffffffff168152602001908152602001600020805480919060019003613e0a91906146b9565b5050505050565b8173ffffffffffffffffffffffffffffffffffffffff16613e3182612337565b73ffffffffffffffffffffffffffffffffffffffff16141515613e5357600080fd5b6060601060008381526020019081526020016000208054600181600116156101000203166002900480601f016020809104026020016040519081016040528092919081815260200182805460018160011615610100020316600290048015613efc5780601f10613ed157610100808354040283529160200191613efc565b820191906000526020600020905b815481529060010190602001808311613edf57829003601f168201915b50505050509050613f0d8183614032565b613f178383614286565b505050565b600080823b905060008111915050919050565b6000808284019050838110151515613f4657600080fd5b8091505092915050565b600073ffffffffffffffffffffffffffffffffffffffff166002600083815260200190815260200160002060009054906101000a900473ffffffffffffffffffffffffffffffffffffffff1673ffffffffffffffffffffffffffffffffffffffff1614151561400d5760006002600083815260200190815260200160002060006101000a81548173ffffffffffffffffffffffffffffffffffffffff021916908373ffffffffffffffffffffffffffffffffffffffff1602179055505b50565b600082821115151561402157600080fd5b600082840390508091505092915050565b60006140b66001600d856040518082805190602001908083835b602083101515614071578051825260208201915060208101905060208303925061404c565b6001836020036101000a03801982511681845116808217855250505050505090500191505090815260200160405180910390208054905061401090919063ffffffff16565b90506000600e60008481526020019081526020016000205490508181141515614201576000600d856040518082805190602001908083835b60208310151561411357805182526020820191506020810190506020830392506140ee565b6001836020036101000a03801982511681845116808217855250505050505090500191505090815260200160405180910390208381548110151561415357fe5b9060005260206000200154905080600d866040518082805190602001908083835b6020831015156141995780518252602082019150602081019050602083039250614174565b6001836020036101000a0380198251168184511680821785525050505050509050019150509081526020016040518091039020838154811015156141d957fe5b906000526020600020018190555081600e600083815260200190815260200160002081905550505b600d846040518082805190602001908083835b6020831015156142395780518252602082019150602081019050602083039250614214565b6001836020036101000a038019825116818451168082178552505050505050905001915050908152602001604051809103902080548091906001900361427f91906146b9565b5050505050565b61429082826142e5565b6000600b60008381526020019081526020016000208054600181600116156101000203166002900490501415156142e157600b600082815260200190815260200160002060006142e09190614671565b5b5050565b6142ef828261431f565b6142f98282613c6d565b6000600660008381526020019081526020016000208190555061431b816144b3565b5050565b8173ffffffffffffffffffffffffffffffffffffffff1661433f82612337565b73ffffffffffffffffffffffffffffffffffffffff1614151561436157600080fd5b61436a81613f50565b6143bd6001600360008573ffffffffffffffffffffffffffffffffffffffff1673ffffffffffffffffffffffffffffffffffffffff1681526020019081526020016000205461401090919063ffffffff16565b600360008473ffffffffffffffffffffffffffffffffffffffff1673ffffffffffffffffffffffffffffffffffffffff1681526020019081526020016000208190555060006001600083815260200190815260200160002060006101000a81548173ffffffffffffffffffffffffffffffffffffffff021916908373ffffffffffffffffffffffffffffffffffffffff16021790555080600073ffffffffffffffffffffffffffffffffffffffff168373ffffffffffffffffffffffffffffffffffffffff167fddf252ad1be2c89b69c2b068fc378daa952ba7f163c4a11628f55a4df523b3ef60405160405180910390a45050565b60006144ce600160078054905061401090919063ffffffff16565b905060006008600084815260200190815260200160002054905060006007838154811015156144f957fe5b906000526020600020015490508060078381548110151561451657fe5b9060005260206000200181905550816008600083815260200190815260200160002081905550600780548091906001900361455191906146b9565b506000600860008681526020019081526020016000208190555050505050565b828054600181600116156101000203166002900490600052602060002090601f016020900481019282601f106145b257805160ff19168380011785556145e0565b828001600101855582156145e0579182015b828111156145df5782518255916020019190600101906145c4565b5b5090506145ed91906146e5565b5090565b828054600181600116156101000203166002900490600052602060002090601f016020900481019282601f1061463257803560ff1916838001178555614660565b82800160010185558215614660579182015b8281111561465f578235825591602001919060010190614644565b5b50905061466d91906146e5565b5090565b50805460018160011615610100020316600290046000825580601f1061469757506146b6565b601f0160209004906000526020600020908101906146b591906146e5565b5b50565b8154818355818111156146e0578183600052602060002091820191016146df91906146e5565b5b505050565b61470791905b808211156147035760008160009055506001016146eb565b5090565b9056fea165627a7a72305820f779d3350aace483b27f530033e16ca9626966050d4cc7be5e0c4980680895be0029",
  "source": "pragma solidity ^0.5.0;\n\nimport 'openzeppelin-solidity/contracts/token/ERC721/ERC721Full.sol';\nimport 'openzeppelin-solidity/contracts/ownership/Ownable.sol';\nimport 'openzeppelin-solidity/contracts/token/ERC721/ERC721Burnable.sol';\n\ncontract ProveRealCore is ERC721Full,ERC721Burnable,Ownable{\n\n  mapping(string => uint256[]) private _issuedTokens;\n  mapping(uint256 => uint256) public issuedTokensIndex;\n  mapping(address => bool) private _addressIsBrand;\n  mapping(uint256 => string) public tokenBrands;\n  mapping(address => string) public addressToBrand;\n  mapping(string => address) private _brandToAddress;\n  mapping(string => bool) private _brandAssigned;\n  mapping(string => mapping(string => bool)) private _brandHasMetadata;\n  mapping(string => bool) private _metadataRegistered;\n  mapping(string => string) private _brandOfMetadata;\n  mapping(string => mapping(uint256 => string)) private _brandMetadataMapping;\n  mapping(string => uint256) private _brandMetadataCount;\n  mapping(string => uint256) private _metadataIndex;\n  uint256 public issuanceFee;\n  event issued(string brand, uint256 tokenId);\n\n  constructor() ERC721Full(\"ProveRealAlphaAlpha\", \"PVAA\") public {\n    issuanceFee = 0;\n }\n\n function kill() onlyOwner external{\n   selfdestruct(msg.sender);\n }\n\n function brandToAddress(string calldata brand) external view returns(address){\n   return _brandToAddress[brand];\n }\n\n function setBrand(address brandAddress, string calldata brandName) external onlyOwner{\n   require(!_brandAssigned[brandName]);\n   require(!_addressIsBrand[brandAddress]);\n   addressToBrand[brandAddress] = brandName;\n   _addressIsBrand[brandAddress] = true;\n   _brandAssigned[brandName] = true;\n   _brandToAddress[brandName] = brandAddress;\n }\n\n function changeBrandAddress(address oldAddress, address newAddress) external {\n   require(_addressIsBrand[oldAddress]);\n   require(!_addressIsBrand[newAddress]);\n   require(oldAddress == msg.sender || isOwner());\n   string memory brandName = addressToBrand[oldAddress];\n   delete addressToBrand[oldAddress];\n   delete _addressIsBrand[oldAddress];\n   addressToBrand[newAddress] = brandName;\n   _addressIsBrand[newAddress] = true;\n   _brandToAddress[brandName] = newAddress;\n }\n\n function getMetadataBrand(string calldata metadataURI) external view returns(string memory){\n   return _brandOfMetadata[metadataURI];\n }\n\n function getMetadataIndex(string calldata metadataURI) external view returns(uint256){\n   return _metadataIndex[metadataURI];\n }\n\n function registerMetadata(string calldata metadataURI) external validBrand{\n   require(!_metadataRegistered[metadataURI]);\n   string memory brand = addressToBrand[msg.sender];\n   uint256 index = _brandMetadataCount[brand];\n   _brandHasMetadata[brand][metadataURI] = true;\n   _brandOfMetadata[metadataURI] = brand;\n   _metadataRegistered[metadataURI] = true;\n   _brandMetadataMapping[brand][index] = metadataURI;\n   _brandMetadataCount[brand] = index + 1;\n }\n\n function getBrandMetadataCount(string calldata brand) external view returns(uint256){\n   return _brandMetadataCount[brand];\n }\n\n function getBrandItemByIndex(uint256 index,string calldata brand) external view returns(string memory){\n   return _brandMetadataMapping[brand][index];\n }\n\n function isMetadataRegistered(string calldata metadataURI) external view returns(bool){\n   return _metadataRegistered[metadataURI];\n }\n\n function _setTokenBrand(uint256 tokenId, string memory brand) internal {\n    require(_exists(tokenId));\n    tokenBrands[tokenId] = brand;\n  }\n\n  function _removeTokenFromBrandEnumeration(string memory brand, uint256 tokenId) internal {\n    uint256  lastTokenIndex = _issuedTokens[brand].length.sub(1);\n    uint256  tokenIndex = issuedTokensIndex[tokenId];\n\n    // When the token to delete is the last token, the swap operation is unnecessary\n    if (tokenIndex != lastTokenIndex) {\n       uint256 lastTokenId = _issuedTokens[brand][lastTokenIndex];\n      _issuedTokens[brand][tokenIndex] = lastTokenId; // Move the last token to the slot of the to-delete token\n      issuedTokensIndex[lastTokenId] = tokenIndex; // Update the moved token's index\n    }\n    // This also deletes the contents at the last position of the array\n    _issuedTokens[brand].length--;\n  }\n\n  function _addTokenToBrandEnumeration(string memory brand, uint256 tokenId) private {\n       issuedTokensIndex[tokenId] = _issuedTokens[brand].length;\n       _issuedTokens[brand].push(tokenId);\n   }\n\n   function getNumberOfBrandTokens(string calldata brand) external view returns(uint256){\n     return _issuedTokens[brand].length;\n   }\n\n   function getTokenIDFromBrandEnumeration(uint256 tokenIndex, string calldata brand) external view returns(uint256){\n     return _issuedTokens[brand][tokenIndex];\n   }\n\n   function _burn(address owner, uint256 tokenId) internal{\n     require(ownerOf(tokenId) == owner);\n     string memory brand = tokenBrands[tokenId];\n     _removeTokenFromBrandEnumeration(brand, tokenId);\n     super._burn(owner, tokenId);\n   }\n\n   function _burn(uint256 tokenId) internal {\n      _burn(ownerOf(tokenId), tokenId);\n   }\n\n   function issue(address to, string calldata metadataURI) external payable validBrand issuanceFeeCorrect{\n     string memory brand = addressToBrand[msg.sender];\n     require(_brandHasMetadata[brand][metadataURI]);\n     uint256 id = totalSupply();\n     _mint(to, id);\n     _setTokenURI(id,metadataURI);\n     _setTokenBrand(id,brand);\n     _addTokenToBrandEnumeration(brand,id);\n     emit issued(brand, id);\n   }\n\n   function setIssuanceFee(uint256 fee) external onlyOwner{\n     issuanceFee = fee;\n   }\n\n   function withdrawBalance() external onlyOwner{\n     msg.sender.transfer(address(this).balance);\n   }\n\n   modifier issuanceFeeCorrect(){\n     require(msg.value == issuanceFee);\n     _;\n   }\n\n   modifier validBrand(){\n     require(_addressIsBrand[msg.sender]);\n     _;\n   }\n\n}\n",
  "sourcePath": "/home/kiran/proverealnft/contracts/ProveRealCore.sol",
  "compiler": {
    "name": "solc",
    "version": "0.5.0+commit.1d4f565a.Emscripten.clang"
  },
  "schemaVersion": "3.0.0",
  "updatedAt": "2019-04-10T01:04:54.573Z",
  "devdoc": {
    "methods": {
      "approve(address,uint256)": {
        "details": "Approves another address to transfer the given token ID The zero address indicates there is no approved address. There can only be one approved address per token at a given time. Can only be called by the token owner or an approved operator.",
        "params": {
          "to": "address to be approved for the given token ID",
          "tokenId": "uint256 ID of the token to be approved"
        }
      },
      "balanceOf(address)": {
        "details": "Gets the balance of the specified address",
        "params": {
          "owner": "address to query the balance of"
        },
        "return": "uint256 representing the amount owned by the passed address"
      },
      "burn(uint256)": {
        "details": "Burns a specific ERC721 token.",
        "params": {
          "tokenId": "uint256 id of the ERC721 token to be burned."
        }
      },
      "getApproved(uint256)": {
        "details": "Gets the approved address for a token ID, or zero if no address set Reverts if the token ID does not exist.",
        "params": {
          "tokenId": "uint256 ID of the token to query the approval of"
        },
        "return": "address currently approved for the given token ID"
      },
      "isApprovedForAll(address,address)": {
        "details": "Tells whether an operator is approved by a given owner",
        "params": {
          "operator": "operator address which you want to query the approval of",
          "owner": "owner address which you want to query the approval of"
        },
        "return": "bool whether the given operator is approved by the given owner"
      },
      "isOwner()": {
        "return": "true if `msg.sender` is the owner of the contract."
      },
      "name()": {
        "details": "Gets the token name",
        "return": "string representing the token name"
      },
      "owner()": {
        "return": "the address of the owner."
      },
      "ownerOf(uint256)": {
        "details": "Gets the owner of the specified token ID",
        "params": {
          "tokenId": "uint256 ID of the token to query the owner of"
        },
        "return": "owner address currently marked as the owner of the given token ID"
      },
      "renounceOwnership()": {
        "details": "Allows the current owner to relinquish control of the contract."
      },
      "safeTransferFrom(address,address,uint256)": {
        "details": "Safely transfers the ownership of a given token ID to another address If the target address is a contract, it must implement `onERC721Received`, which is called upon a safe transfer, and return the magic value `bytes4(keccak256(\"onERC721Received(address,address,uint256,bytes)\"))`; otherwise, the transfer is reverted.     * Requires the msg sender to be the owner, approved, or operator",
        "params": {
          "from": "current owner of the token",
          "to": "address to receive the ownership of the given token ID",
          "tokenId": "uint256 ID of the token to be transferred"
        }
      },
      "safeTransferFrom(address,address,uint256,bytes)": {
        "details": "Safely transfers the ownership of a given token ID to another address If the target address is a contract, it must implement `onERC721Received`, which is called upon a safe transfer, and return the magic value `bytes4(keccak256(\"onERC721Received(address,address,uint256,bytes)\"))`; otherwise, the transfer is reverted. Requires the msg sender to be the owner, approved, or operator",
        "params": {
          "_data": "bytes data to send along with a safe transfer check",
          "from": "current owner of the token",
          "to": "address to receive the ownership of the given token ID",
          "tokenId": "uint256 ID of the token to be transferred"
        }
      },
      "setApprovalForAll(address,bool)": {
        "details": "Sets or unsets the approval of a given operator An operator is allowed to transfer all tokens of the sender on their behalf",
        "params": {
          "approved": "representing the status of the approval to be set",
          "to": "operator address to set the approval"
        }
      },
      "supportsInterface(bytes4)": {
        "details": "implement supportsInterface(bytes4) using a lookup table"
      },
      "symbol()": {
        "details": "Gets the token symbol",
        "return": "string representing the token symbol"
      },
      "tokenByIndex(uint256)": {
        "details": "Gets the token ID at a given index of all the tokens in this contract Reverts if the index is greater or equal to the total number of tokens",
        "params": {
          "index": "uint256 representing the index to be accessed of the tokens list"
        },
        "return": "uint256 token ID at the given index of the tokens list"
      },
      "tokenOfOwnerByIndex(address,uint256)": {
        "details": "Gets the token ID at a given index of the tokens list of the requested owner",
        "params": {
          "index": "uint256 representing the index to be accessed of the requested tokens list",
          "owner": "address owning the tokens list to be accessed"
        },
        "return": "uint256 token ID at the given index of the tokens list owned by the requested address"
      },
      "tokenURI(uint256)": {
        "details": "Returns an URI for a given token ID Throws if the token ID does not exist. May return an empty string.",
        "params": {
          "tokenId": "uint256 ID of the token to query"
        }
      },
      "totalSupply()": {
        "details": "Gets the total amount of tokens stored by the contract",
        "return": "uint256 representing the total amount of tokens"
      },
      "transferFrom(address,address,uint256)": {
        "details": "Transfers the ownership of a given token ID to another address Usage of this method is discouraged, use `safeTransferFrom` whenever possible Requires the msg sender to be the owner, approved, or operator",
        "params": {
          "from": "current owner of the token",
          "to": "address to receive the ownership of the given token ID",
          "tokenId": "uint256 ID of the token to be transferred"
        }
      },
      "transferOwnership(address)": {
        "details": "Allows the current owner to transfer control of the contract to a newOwner.",
        "params": {
          "newOwner": "The address to transfer ownership to."
        }
      }
    }
  },
  "userdoc": {
    "methods": {
      "renounceOwnership()": {
        "notice": "Renouncing to ownership will leave the contract without an owner. It will not be possible to call the functions with the `onlyOwner` modifier anymore."
      }
    }
  }
}